:020000040000fa
:04025c001e2c000054
:020000040000fa
:040210001e2c0000a0
:020000040000fa
:040274001e2c00003c
:020000040000fa
:040334001e2c00007b
:020000040000fa
:04035c001e2c000053
:020000040000fa
:040270001e2c000040
:020000040000fa
:04022c001e2c000084
:020000040000fa
:04023c001e2c000074
:020000040000fa
:0402bc001e2c0000f4
:020000040000fa
:0402c0001e2c0000f0
:020000040000fa
:0402c4001e2c0000ec
:020000040000fa
:0402c8001e2c0000e8
:020000040000fa
:040280001e2c000030
:020000040000fa
:040284001e2c00002c
:020000040000fa
:04039c001e2c000013
:020000040000fa
:040228001e2c000088
:020000040000fa
:040278001e2c000038
:020000040000fa
:04029c001e2c000014
:020000040000fa
:0402fc001e2c0000b4
:020000040000fa
:040300001e2c0000af
:020000040000fa
:040260001e2c000050
:020000040000fa
:040264001e2c00004c
:020000040000fa
:04027c001e2c000034
:020000040000fa
:040288001e2c000028
:020000040000fa
:0402b0001e2c000000
:020000040000fa
:0402b4001e2c0000fc
:020000040000fa
:0402b8001e2c0000f8
:020000040000fa
:040238001e2c000078
:020000040000fa
:0402e0001e2c0000d0
:020000040000fa
:0402e4001e2c0000cc
:020000040000fa
:0402e8001e2c0000c8
:020000040000fa
:0402f4001e2c0000bc
:020000040000fa
:0402f8001e2c0000b8
:020000040000fa
:040304001e2c0000ab
:020000040000fa
:040308001e2c0000a7
:020000040000fa
:04030c001e2c0000a3
:020000040000fa
:040310001e2c00009f
:020000040000fa
:040314001e2c00009b
:020000040000fa
:040318001e2c000097
:020000040000fa
:04031c001e2c000093
:020000040000fa
:040324001e2c00008b
:020000040000fa
:040328001e2c000087
:020000040000fa
:040338001e2c000077
:020000040000fa
:04033c001e2c000073
:020000040000fa
:040340001e2c00006f
:020000040000fa
:040344001e2c00006b
:020000040000fa
:04034c001e2c000063
:020000040000fa
:040350001e2c00005f
:020000040000fa
:040354001e2c00005b
:020000040000fa
:040358001e2c000057
:020000040000fa
:040360001e2c00004f
:020000040000fa
:040364001e2c00004b
:020000040000fa
:040368001e2c000047
:020000040000fa
:040348001e2c000067
:020000040000fa
:04026c001e2c000044
:020000040000fa
:0402f0001e2c0000c0
:020000040000fa
:04037c001e2c000033
:020000040000fa
:040218001e2c000098
:020000040000fa
:040230001e2c000080
:020000040000fa
:040240001e2c000070
:020000040000fa
:04028c001e2c000024
:020000040000fa
:040290001e2c000020
:020000040000fa
:0402cc001e2c0000e4
:020000040000fa
:0402d0001e2c0000e0
:020000040000fa
:0402d4001e2c0000dc
:020000040000fa
:0402d8001e2c0000d8
:020000040000fa
:040398001e2c000017
:020000040000fa
:04020c001e2c0000a4
:020000040000fa
:0402dc001e2c0000d4
:020000040000fa
:040320001e2c00008f
:020000040000fa
:040208001e2c0000a8
:020000040000fa
:04021c001e2c000094
:020000040000fa
:040220001e2c000090
:020000040000fa
:040224001e2c00008c
:020000040000fa
:040268001e2c000048
:020000040000fa
:0402ec001e2c0000c4
:020000040000fa
:040378001e2c000037
:020000040000fa
:04024c001e2c000064
:020000040000fa
:040250001e2c000060
:020000040000fa
:0402a8001e2c000008
:020000040000fa
:0402ac001e2c000004
:020000040000fa
:040390001e2c00001f
:020000040000fa
:040394001e2c00001b
:020000040000fa
:040214001e2c00009c
:020000040000fa
:040234001e2c00007c
:020000040000fa
:040244001e2c00006c
:020000040000fa
:040248001e2c000068
:020000040000fa
:040294001e2c00001c
:020000040000fa
:040298001e2c000018
:020000040000fa
:04032c001e2c000083
:020000040000fa
:040254001e2c00005c
:020000040000fa
:040258001e2c000058
:020000040000fa
:040330001e2c00007f
:020000040000fa
:0402a0001e2c000010
:020000040000fa
:0402a4001e2c00000c
:020000040000fa
:04036c001e2c000043
:020000040000fa
:040370001e2c00003f
:020000040000fa
:040374001e2c00003b
:020000040000fa
:040384001e2c00002b
:020000040000fa
:040388001e2c000027
:020000040000fa
:04038c001e2c000023
:020000040000fa
:040380001e2c00002f
:020000040000fa
:080000001011040000000000d3
:020000040000fa
:102220000fc820000eff27000e01880000000000ec
:10223000000020000000e000020032000001200049
:1022400020028800140007007d0007000000e00065
:1022500003003a0020bf22000100200002003700e6
:102260000000200001002000810f700001003200fa
:1022700014000700000020000000e000020032000f
:1022800000000200000000009c2902000000000085
:102290000040da000000fe004440a90020062000b3
:1022a0000000e000030032000020200090018800c0
:1022b0004440a800000006008a1f78008b1f7800a9
:1022c00000000600a1028800800478000000eb00f6
:1022d0001f003700e284440054a0b4009905ba00fe
:1022e000e284440054a0b4009906ba00e284440099
:1022f00054a0b4000006eb00476fde00fd07b200fb
:10230000ae018800636ce10003003a00eaff0700b9
:102310000000eb000e003700606ce10008003a009e
:10232000004deb000a05e800020039003420ec0003
:102330000af0a0008b05e900f9ff3e000400370019
:102340006168e100010032000086eb000b0007002d
:1023500019c7ba001905ba000e04e00003003a00dc
:102360000a00e000dbff3a0000000600fe07b200b2
:10237000ae0288008a047800f5ff37000cd0a30075
:10238000e20f4d001c00390089027800354dba007b
:102390000a05e800020039003420ec000af0a00031
:1023a0008b05e9000f003200254dba000a05e80050
:1023b000020039003420ec000af0a0008b05e9008f
:1023c000080032000c00e0000600320015cdba0013
:1023d0000a05e800020039003420ec000af0a000f1
:1023e0008b05e9008984e80054a0b4000b00e000ec
:1023f000e2ff3a00000006009902ba00055d78008d
:102400008b05e900f7ff3200c82ade00055d780081
:102410008b05e900f3ff32000c00e000f1ff320011
:1024200019ddba00eeff3700b22204000000000000
:102430006e22040000000000d4220400000000000e
:102440000000050003f0a200889fbe008a9fbe0026
:102450008c1f7800f5000700fc0033006450e10099
:102460004f0032006420e1005200320003826c0011
:1024700007003b000905d0000306d000820f54007e
:102480000c065d000200390002003200890178006c
:10249000030678008582550004003d000003fd001e
:1024a0008103fd008502ea008b854200840f7200e3
:1024b00002003b0060001000e08018006011b800ce
:1024c0000005eb007a28e1000a00390006007800d8
:1024d000c75ddd00f707b200878075002d0037006b
:1024e000828171000a017800610560008180d1005d
:1024f0000080d3008502e900f9ff3b00060440009c
:102500008784480002003b0060041400e0841c0043
:102510000988a300070032008a817100828171005e
:10252000610164008904d1000884d3008b05e800b0
:10253000170037000978a30013003a000b00e000f1
:10254000130034008b05e9000804440089844c0022
:102550000a4474000978a3000d003a000b00e00063
:10256000070034008b05e9000804440089844c000e
:1025700001003a000b0020000978a300f7ff3200a9
:102580000001eb0002003700828171000a0178002f
:102590006b0007000cf0a70001f0a000b4003700aa
:1025a0006420e10002003a00838f6c00b400330025
:1025b0000801be000200be00ad003700889fbe00cb
:1025c0008a9fbe008c1f7800980007009f00330090
:1025d00003866c006450e1002e0032006420e100ac
:1025e000330032006150e1002f0032006120e10031
:1025f0003100320085855500eb07b000090020004e
:1026000008042000050037000804440089844c00b9
:102610000a0031000603430087834b00000153008a
:1026200081815b00f8ff33000203be000800a000b8
:102630000804440089844c00f6ff3900c639dd00e7
:102640008301730001003200130020008904d100cf
:102650000884d3000998a300050032000800a700f1
:102660000300a0008904d1000884d3008b05e80092
:102670008904d1000884d3000001eb000281d2005c
:102680002f00070001f0a1000cf0a70001f0a0004e
:10269000770037006420e100790032000801be00b5
:1026a0000200be00f7ff37006120e1007400320035
:1026b0006000b800f3ff37000000200001f8270099
:1026c000f0ff370014002000a4003700f4ff2f00b3
:1026d000a20037000001be003f0007000470a70001
:1026e00003f0a10003f8a30013003a006509b1004c
:1026f00010003200090035006928e10002003500b1
:102700000100280000000500000040008180480012
:102710008502e900fcff3a0000000600f88f420045
:10272000050035008100d1000080d3008502e8005b
:10273000fcff3a00000006008000eb0000000500ee
:1027400081002000618055000b003d000b0020003f
:1027500061fe2f000100e1001d0034008281710044
:10276000610164008904d1000884d3000000e800fe
:10277000faff3a007100200061006400030070005d
:10278000020060000900320061044400e0844c0053
:102790000988a500050032008b05e8006808e10003
:1027a00002003a008904d1000884d300f20f20000f
:1027b0000258e10005003d00c75ddd00f907b200e9
:1027c0008980750008007800000006000bf82700db
:1027d0008b00780000000500c70ade00f107b20098
:1027e000f50fb20008003200e1cf420002003200d3
:1027f0000170a00024000500810f7000010032006c
:102800000408050044000500810f700002003a0032
:10281000140005008502e9000000400081c0480066
:10282000fcff3b000170a000240005000004be0076
:10283000e9ff07000003be000405be000200be0061
:10284000e5ff0700844f7500000006000200be008f
:102850006450e100050036006420e100020036000b
:102860000968a30001003a000800be000160a00052
:102870004f0678004f05be004f04be000000060062
:10288000f0ff2f00f1ff2700f9ff3700889fbe00ff
:102890008a9fbe008c1f7800e4ff0700ebff330027
:1028a00003866c006450e100240032006420e100e3
:1028b000270032006150e100220032006120e10077
:1028c000210032008b854200eb07b1000134b800d3
:1028d000003ab8000804420089844a00013ab8006e
:1028e0000030b8008880400009014a00040033002d
:1028f0000000400081804800020149008b05e9008a
:10290000c909dd00830170000100320013002000be
:10291000c814de004814dd004709de001200b200d2
:10292000c808de000884700085ff070001f0a100e0
:102930000cf0a70001f0a000cdff37006120e100fe
:10294000cfff32000801be000200be00f7ff3700d3
:102950006150e100fcff3a00c9ff3700889fbe00cc
:102960008a9fbe00841f7800b0ff07004f007800e8
:1029700011003300f0ff2f00838f6c0006003b0036
:10298000040565000a00a7000800370009f0a6004a
:102990001000200008003700820f5400838f5c0075
:1029a000030039001000200001003e00000020005c
:1029b00009f0a7000000ea004f05be004f04be006a
:0829c0000000e0000000060029
:020000040000fa
:020000040002f8
:04aff400031c00003a
:020000040000fa
:020000040002f8
:04aff8000f890000bd
:020000040000fa
:020000040002f8
:04affc007f3e000094
:020000040000fa
:1020000010110400000000001e2c0400000000005d
:102010001e2c0400000000001e2c04000000000024
:102020001e2c0400000000001e2c04000000000014
:102030001e2c0400000000001e2c04000000000004
:102040001e2c0400000000001e2c040000000000f4
:102050001e2c0400000000001e2c040000000000e4
:102060001e2c0400000000001e2c040000000000d4
:102070001e2c0400000000001e2c040000000000c4
:102080001e2c0400000000001e2c040000000000b4
:102090001e2c0400000000001e2c040000000000a4
:1020a0001e2c0400000000001e2c04000000000094
:1020b0001e2c0400000000001e2c04000000000084
:1020c0001e2c0400000000001e2c04000000000074
:1020d0001e2c0400000000001e2c04000000000064
:1020e0001e2c0400000000001e2c04000000000054
:1020f0001e2c0400000000001e2c04000000000044
:102100001e2c0400000000001e2c04000000000033
:102110001e2c0400000000001e2c04000000000023
:102120001e2c0400000000001e2c04000000000013
:102130001e2c0400000000001e2c04000000000003
:102140001e2c0400000000001e2c040000000000f3
:102150001e2c0400000000001e2c040000000000e3
:102160001e2c0400000000001e2c040000000000d3
:102170001e2c0400000000001e2c040000000000c3
:102180001e2c0400000000001e2c040000000000b3
:102190001e2c0400000000001e2c040000000000a3
:1021a0001e2c0400000000001e2c04000000000093
:1021b0001e2c0400000000001e2c04000000000083
:1021c0001e2c0400000000001e2c04000000000073
:1021d0001e2c0400000000001e2c04000000000063
:1021e0001e2c0400000000001e2c04000000000053
:1021f0001e2c0400000000001e2c04000000000043
:102200001e2c0400000000001e2c04000000000032
:102210001e2c0400000000001e2c04000000000022
:020000040000fa
:1000080004100000081000000c1000001010000080
:10001800141000000c1100000c1100000c1100005d
:10002800181000001c100000201000002410000010
:100038000c110000281000002c10000030100000e7
:1000480034100000381000003c1000004010000080
:1000580044100000481000000c1100000c110000b2
:100068004c10000050100000541000005810000000
:100078005c1000000c11000060100000641000000b
:100088000c110000681000006c10000070100000d7
:1000980074100000781000007c1000008010000030
:1000a80084100000881000000c1100000c110000e2
:1000b8000c1100008c10000090100000941000003b
:1000c800981000009c100000a0100000a410000070
:1000d800a8100000ac1000000c1100000c1100006a
:1000e8000c110000b0100000b41000000c1100004a
:1000f8000c110000b8100000bc1000000c1100002a
:100108000c1100000c1100000c1100000c11000073
:100118000c1100000c110000c01000000c110000b0
:100128000c110000c4100000c8100000cc10000022
:100138000c1100000c1100000c1100000c11000043
:10014800d01000000c1100000c1100000c11000070
:100158000c110000d41000000c1100000c1100005c
:100168000c110000d8100000dc100000e0100000a6
:10017800e4100000e8100000ec100000f01000008f
:10018800f4100000f8100000fc100000001100003e
:1001980004110000081100000c1100000c110000ef
:1001a8000c1100000c1100000c1100000c110000d3
:1001b8000c1100000c1100000c1100000c110000c3
:1001c8000c1100000c1100000c1100000c110000b3
:1001d8000c1100000c1100000c1100000c110000a3
:1001e8000c1100000c1100000c1100000c11000093
:0801f8000c1100000c110000c5
:020000040000fa
:1029c80012010000000200000000000000400000aa
:1029d800666600000300000000000000010200001d
:1029e80000010000090200001200000001010000bf
:1029f80000a00000320900000400000000000000f0
:102a0800ff000000ff0000000403000009040000ac
:102a18001a0300004f0000006c000000690000006d
:102a28006e00000020000000430000006f0000005e
:102a38006c0000006c0000006500000067000000ea
:102a4800650000002003000050000000490000005d
:102a5800430000003200000034000000460000007f
:102a68004a00000031000000320000003800000079
:102a78004700000042000000320000003000000063
:042a88003600000014
:020000040000fa
:102a8c000400fa009424a8009624ef00f00f200014
:102a9c00702488009424a900a04a200010079800f4
:102aac000040eb00004f7800070037001e80fb0051
:102abc00000040009e009000008040008000eb0071
:102acc00010878001e4fe8001e407800ef4f5000c0
:102adc00f6ff3600d00020005025880000c02000f2
:102aec0001c4b3000148780040a0200010608800a9
:102afc0010c0200081c8b3000148780040a4200019
:102b0c003060880050c0200081c0b30001487800bc
:102b1c00a624ef00a824ef0000c020004800de002f
:102b2c00c02488008644a80086e4a8008804a80075
:102b3c0094a4a9003d68ef004068ef0010c0b300fa
:102b4c003ee8b70040a8200080c0eb0001487800a8
:102b5c0050a8200080c0eb00014878000000000065
:102b6c00a124800000042000008060000000e00030
:102b7c00fbff3a000080fa00000006000600fa0095
:102b8c0050248000620060000000e000050032006c
:102b9c00f00f2000702488002000200050248800b2
:102bac009000370050248000640060000000e000ba
:102bbc0003003200400020005024880089003700b8
:102bcc0050248000700060000000e0000300320020
:102bdc00000120005024880082003700512480001e
:102bec0000022000008060000000e00003003200c2
:102bfc0000022000502488007a0037005124800005
:102c0c0000082000008060000000e000030032009b
:102c1c0000082000502488007200370050248000e7
:102c2c00610060000000e000340032003d68ef00fd
:102c3c0008003700800020005024880000000000ad
:102c4c000000000000000000000000000000000078
:102c5c000000000050248000680060000000e000cc
:102c6c00f4ff3a00a04a2000100798000040eb0047
:102c7c00004f7800070037001e80fb00000040006a
:102c8c009e009000008040008000eb00010878005e
:102c9c001e4fe8001e407800ef4f5000f6ff360044
:102cac0000c0200001c4b3000148780040a02000ff
:102cbc001060880010c0200081c8b3000148780063
:102ccc0040a420003060880050c0200081c0b300b8
:102cdc00014878009624ef00f00f20005024880063
:102cec00d00020005025880010c0b30040e8b70089
:102cfc0010c0b3003ee8b7003a0037005024800003
:102d0c00680060000000e000360032009024800073
:102d1c004300de00c200dd0000c020000080400047
:102d2c00200798002e0090001040900031e8b7006a
:102d3c002e0090001040780030e8b7002e00900074
:102d4c001000900090418800902480000040780092
:102d5c003fe8b70080002000502488003c68ef005a
:102d6c0031c8bf008080fb00c003200000806000e1
:102d7c0041022000810f5000080032004103200066
:102d8c00810f500003003200e40f500005003200a8
:102d9c00050037001500070003003700da020700b2
:102dac00010037000c0307003cc8bf000080fb008b
:102dbc0061006000004078000004e000090032006f
:102dcc0000c0200001c4b3000148780050c02000ae
:102ddc0041c8b3000148780010c0200041c8b300be
:102dec00014878000080fa00000006000200fa009a
:102dfc0091418000010f78001e007800904078000f
:102e0c0040832000014878001e0fe8001e00780067
:102e1c009040780040832000114098001e0fe8007d
:102e2c001e007800904078004083200021409800dc
:102e3c001e0fe8001e0078009040780040832000b0
:102e4c00314098001e0fe8001e007800904078007a
:102e5c0040832000414098001e0fe8001e007800bf
:102e6c009040780040832000514098001e0fe800ed
:102e7c001e0078009040780040832000614098004c
:102e8c001e0fe8001e007800904078004083200060
:102e9c00714098001e0fe80000c0200001c4b30070
:102eac000148780050c0200081c0b3000148780070
:102ebc0040832000104078000004e000060035003c
:102ecc0040832000300090000000e000020032003f
:102edc0080ccb3000100370080c8b30011c02000c3
:102eec008048780094a4a90040a8200080c0eb0082
:102efc000148780050a8200080c0eb000148780001
:102f0c0040832000104078008080fb0000062000e9
:102f1c00008060000000e00004003200010420008a
:102f2c00810f500003003200040037000800070036
:102f3c00050037004e080700030037003cc8bf00ef
:102f4c000004a0003ce8b7000080fa000000060076
:102f5c000600fa0040832000104090000080fb0027
:102f6c00e60f500077013200e60f50000c003c00d9
:102f7c00e10f5000bf003200e10f500003003c0095
:102f8c000000e000120032005a023700e30f50003c
:102f9c00b8003200e50f50004a01320055023700ec
:102fac00e90f5000ed013200e90f500003003c0026
:102fbc00e80f5000de0132004e023700ea0f5000dd
:102fcc0010023200eb0f5000290232004902370088
:102fdc0040832000104078000080fb007f006000e0
:102fec00e10f500013003200e20f500032003200ab
:102ffc000000e0009a003a0030608000e18320007d
:10300c009140780001487800306080000000e800b2
:10301c008040eb000148780040c0200021c0b30084
:10302c000148780050c0200081ccb30001487800e2
:10303c008f00370040c8bf000080fb00e20f50003b
:10304c0003003200e30f5000050032001900370076
:10305c003cc8bf000004a0003ce8b70015003700d6
:10306c0040832000404090000004e0000e003a0035
:10307c00306080008040eb000148780030608000b8
:10308c000000e8008040eb000148780040c02000c0
:10309c0021c0b3000148780050c0200081ccb3009f
:1030ac0001487800030037003cc8bf000004a000b2
:1030bc003ce8b7006e00370040c8bf000080fb0042
:1030cc00e20f500003003200e30f500029003200e1
:1030dc005f00370040832000404090000080fb00e0
:1030ec006f0060000000e0001e003a0031608000bc
:1030fc0040832000404090000004e00007003d00a9
:10310c0050c02000104078000080fb00640060007c
:10311c004280de00004078000600370010c020001e
:10312c00104078000080fb00640060004280de00ec
:10313c000040780080487800306080000000e80093
:10314c008040eb000148780040c0200021c0b30053
:10315c000148780050c0200081ccb30001487800b1
:10316c00030037003cc8bf000004a0003ce8b700d7
:10317c003a003700a04a2000100798004083200036
:10318c00404090006f4f60001e80fb00000040002c
:10319c008000780040832000404090000000fb003d
:1031ac004f00de0001007000c200dd0000c02000f6
:1031bc0000804000200798001e80fb0000004000ab
:1031cc009e0090000080400090007800408320001a
:1031dc00404090000004e00002003d004000200050
:1031ec000100370080002000008060000000e0003b
:1031fc001300320030608000ae00900091409000cf
:10320c008180fb00e4806000c288de008140780091
:10321c0001487800306080000000e8008040eb003e
:10322c000148780040c0200021c0b300014878005c
:10323c0050c0200081ccb300014878000300370057
:10324c003cc8bf000004a0003ce8b70003003700f6
:10325c003cc8bf000004a0003ce8b70004003700e5
:10326c003cc8bf000004a0003ce8b700a401370034
:10327c00a301370040832000104078000080fb0041
:10328c007f0060000000e00003003200e20f5000fd
:10329c001c00320086003700408320002040900044
:1032ac000080fb00e10f500012003a004083200028
:1032bc0010409000e14f500004003a003ec8bf009f
:1032cc000004a1003ee8b700030037003ec8bf0071
:1032dc000004a0003ee8b70040c020008040eb0096
:1032ec000148780050c0200081ccb3000148780020
:1032fc00030037003cc8bf000004a0003ce8b70046
:10330c006f00370040c8bf000080fb00e20f500088
:10331c0003003200e30f500012003200600037004f
:10332c0040832000404090000080fb006f00600054
:10333c000000e00007003a0040c020008040eb0095
:10334c000148780050c0200081ccb30001487800bf
:10335c00030037003cc8bf000004a0003ce8b700e5
:10336c0052003700a04a200010079800408320002c
:10337c00404090006f4f60001e4078000004e00059
:10338c003b0032001e80fb000000400080007800f3
:10339c0040832000404090000000fb004f00de0006
:1033ac0001007000c200dd0000c020000080400061
:1033bc002007980040832000404090000004e0006b
:1033cc0016003d001e80fb00000040009e00900097
:1033dc000080400010007800640060000000e000f5
:1033ec000a0032004083200010409000e14f500052
:1033fc0002003a000040eb000100370040c8b30067
:10340c00ae00900090409800190037003cc8bf00f7
:10341c000004a0003ce8b700150037001e80fb003c
:10342c00000040009e0090000080400010007800da
:10343c00680060000000e0000a00320040832000b9
:10344c0010409000e14f500002003a0080c8b300d9
:10345c000100370040c8b300ae00900090409800c7
:10346c00030037003cc8bf000004a0003ce8b700d4
:10347c003cc8bf000080fb00610060000000e00061
:10348c0006003a0040c020008040eb000148780064
:10349c0050c0200081ccb3000148780003003700f5
:1034ac003cc8bf000004a0003ce8b7000400370093
:1034bc003cc8bf000004a0003ce8b7001001370076
:1034cc000f01370040832000204090000004e000f2
:1034dc0004003d003cc8bf000004a0003ce8b7005d
:1034ec0007013700408320009040780040a820005e
:1034fc0001487800408320009040900050a82000a4
:10350c00014878004083200010009000305488005f
:10351c00408320002000900040548800408320000d
:10352c00300090005054880040c020008040eb00d8
:10353c000148780050c0200081ccb30001487800cd
:10354c00ef003700408320009040780040a8200016
:10355c0001487800408320009040900050a8200043
:10356c0001487800408320001000900030548800ff
:10357c0040832000200090004054880040832000ad
:10358c003000900050548800408320003040900060
:10359c000080fb00e20f500014003200e30f5000db
:1035ac0036003200e10f50005c003a00404e29001a
:1035bc006054880060548000104078000080fb004c
:1035cc007054880040832000b0009000705480003c
:1035dc00808f5000030031004083200030009000a9
:1035ec0070548800220107005000370040832000ef
:1035fc00204090000080fb000000e00003003a0037
:10360c00604f290060548800030037003cc8bf009d
:10361c000004a0003ce8b7003cc8bf000080fb00e1
:10362c00610060000000e00013003a00605480006c
:10363c000080e80090407800e0a820000148780065
:10364c00605480006300400090407800f0a8200097
:10365c000148780040832000b00090007054800036
:10366c00808f500003003100408320003000900018
:10367c0070548800fe0007002c00370040832000a7
:10368c00204090000080fb00e10f5000070032004a
:10369c00e20f5000080032000000e00009003a0080
:1036ac00805029006054880009003700c050290060
:1036bc00605488000600370060522900605488006e
:1036cc00030037003cc8bf000004a0003ce8b70072
:1036dc003cc8bf000080fb00610060000000e000ff
:1036ec000d003a0060548000104078000080fb0010
:1036fc007054880040832000b0009000705480000b
:10370c00808f500003003100408320003000900077
:10371c0070548800d6000700040037003cc8bf0076
:10372c000004a0003ce8b7007500370074003700b7
:10373c0030608000d18320009140780001487800ef
:10374c0040c0200011c0b3000148780050c02000d8
:10375c0081ccb30001487800690037004083200019
:10376c0020409000e14f500022003e00a04a200073
:10377c001007980010c0b300004f78000700370006
:10378c001e80fb00000040009e0090000080400066
:10379c008000eb00010878001e4fe8001e40780006
:1037ac00ef4f5000f6ff3600408320002040900081
:1037bc003de8b7003dc8bf000080fb000000e00002
:1037cc0003003a0020c0b30040e8b7000200370005
:1037dc0030c0b30040e8b70040c020008040eb0090
:1037ec000148780050c0200081ccb300014878001b
:1037fc00430037003cc8bf000004a0003ce8b70001
:10380c003f00370040c8bf000080fb00e30f5000b2
:10381c0013003a0040832000404090000004e00078
:10382c000a003a00306080008040eb0001487800cc
:10383c0040c0200011c0b3000148780050c02000e7
:10384c0081ccb30001487800030037003cc8bf00ae
:10385c000004a0003ce8b70000000000280037007e
:10386c003cc8bf000004a0003ce8b70024003700af
:10387c0040c8bf000080fb00e30f500019003a0065
:10388c0040832000404090000004e00010003a000b
:10389c0040832000204090000080fb000000e000ee
:1038ac0007003a0040c020008040eb00014878003f
:1038bc0050c0200081ccb3000148780007003700cd
:1038cc003cc8bf000004a0003ce8b7000300370070
:1038dc003cc8bf000004a0003ce8b700000000009a
:1038ec00070037003cc8bf000004a0003ce8b7004c
:1038fc00030037003cc8bf000004a0003ce8b70040
:10390c000080fa00000006000000fa003fc8bf006b
:10391c008080fb00000f2000008060000000e000b1
:10392c002b003a0040a82000104078008080fb005b
:10393c00000620000080600001022000810f500072
:10394c001f00320001042000810f50001a003200c9
:10395c000000e0001d003a0050a820001040780044
:10396c000080fb00e50f500003003200e60f500012
:10397c000e0032001300370060a8200010407800c1
:10398c000080fb00b0248800b02480000000e00020
:10399c0003003a0010c0b30040e8b7000200370043
:1039ac0020c0b30040e8b700020037003000070029
:1039bc000000000003003700440607000100370038
:1039cc0000000000000000000100370000000000b3
:1039dc000080fa00000006000000fa003fc8bf009b
:1039ec008080fb00000f2000008060000000e000e1
:1039fc001d003a0040a82000104078008080fb0099
:103a0c00000620000080600001022000810f5000a1
:103a1c000500320001042000810f500004003a0020
:103a2c0030060700030037000000000001003700db
:103a3c000000000000c0200001c4b3000148780061
:103a4c0010c0200081c8b3000148780040c020009d
:103a5c008040eb000148780050c0200081ccb300be
:103a6c0001487800000000000080fa000000060009
:103a7c000200fa0071548000f0032000808f500087
:103a8c000b003e0070548000004f78000000eb00eb
:103a9c007054880040a8200080c0eb0001487800da
:103aac0050a8200080c0eb000148780005003700ca
:103abc0000c4b300004f7800705480000004b100c3
:103acc00705488000040eb00104798000c00370041
:103adc00316080001e4090000080fb008080400020
:103aec006054800010417800824878000000e800a3
:103afc00605488001e4090000040e8001047980079
:103b0c001e4090009e4f5000f1ff390040c0200035
:103b1c001e48780050c020001040780000c0ea0019
:103b2c0002c4b3008240600080c8b30000c07000c3
:103b3c008040780050c02000014878000080fa00d6
:103b4c00000006000000fa0080002000801f7800b2
:103b5c00770020000043eb00856a200084242000bd
:103b6c0043242000222420000124200000a920004e
:103b7c001b0007008f87e900b0002000801f780031
:103b8c00a70020000043eb00c56a2000842620001b
:103b9c0043262000222620000126200060aa2000b7
:103bac000f0007008f87e90010022000801f7800ab
:103bbc00070220000043eb00856b200084282000c6
:103bcc00432820002228200001282000c0ab200020
:103bdc00030007008f87e9000080fa000000060050
:103bec001000fa00000f78001107980022079800c7
:103bfc00330798004407980055079800464f9800e3
:103c0c00770798001e0078009e009000010878004d
:103c1c001e007800ae009000110098001e00780085
:103c2c00be009000210098001e007800ce0090008d
:103c3c00310098001e007800de00900041009800d2
:103c4c001e007800ce489000214898001e00780095
:103c5c00fe009000610098001e007800ceb897001e
:103c6c00710098001e0078008000eb00010898009d
:103c7c001e0078008000eb00110898001e007800f0
:103c8c008000eb00210898000080fa00000006007c
:103c9c001a00fa00881f78006007980071079800d6
:103cac00020f9800130f9800240f9800350f9800fe
:103cbc00065f980000102000200798000000eb0021
:103ccc0030079800001420004007980000042000e2
:103cdc00500798007e00900060009000e10f4000bb
:103cec00360132000e08900060009000e10f400099
:103cfc00340132001e08900060009000e10f40007b
:103d0c00320132007e009000000890000000e000bc
:103d1c0097003a000e089000000890000000e000a8
:103d2c0093003a001e089000000890000000e0008c
:103d3c008f003a007e009000660307000e0890008a
:103d4c008b0307000e089000e60307001e08900086
:103d5c00870307001e089000f70307006e00900011
:103d6c00fe009000010898007e009000ee0090008c
:103d7c00010898007e0090008000eb00110898006c
:103d8c007e0090008000eb00210898006e009000ef
:103d9c008e089000110898000e089000ee0090001c
:103dac00010898000e0890008000eb0011089800a4
:103dbc000e0890008000eb00210898006e00900027
:103dcc009e089000210898001e089000ee009000bc
:103ddc00010898001e0890008000eb001108980064
:103dec001e0890008000eb0021089800113a80001a
:103dfc00f00b2000008160006004200071052000a1
:103e0c002374200080497800814978008249780029
:103e1c006e00900040009000ee009000c1009000f9
:103e2c0011017800ee009000a14890008180fb0009
:103e3c00f30320008118dd008180ea00810061001d
:103e4c00010878006e00900040009000ee00900099
:103e5c00c100900011017800fe009000e10190007b
:103e6c00ee009000a14890008180fb008118dd00dd
:103e7c0082807000010878000e089000700090009d
:103e8c008e089000f1009000110178008e089000cf
:103e9c00a14890008180fb00f30320008118dd0015
:103eac008180ea0081006100010878000e08900012
:103ebc00700090008e089000f100900011017800c5
:103ecc00ee009000e10190008e089000a148900057
:103edc008180fb008118dd00828070000108780071
:103eec001e089000700090009e089000f100900059
:103efc00110178009e089000a14890008180fb0081
:103f0c00f30320008118dd008180ea00810061004c
:103f1c00010878001e089000700090009e08900028
:103f2c00f100900011017800ee009000f10190007a
:103f3c009e089000a14890008180fb008118dd0054
:103f4c008280700001087800103a8000000178002f
:103f5c000260a00060042000710520002374200082
:103f6c008049780081497800824978000f00370039
:103f7c006e009000800890007e009000808f5000b2
:103f8c0094003a006e009000900890000e0890008b
:103f9c00808f500091003a006e009000a0089000b5
:103fac001e089000808f50008e003a0018c0b3009d
:103fbc000240220043af24002e089000be0890005f
:103fcc00bff907000000e00001003c000044eb00da
:103fdc000804e000040032000040220041af24003d
:103fec00200f9800310f980018c0b3000240220037
:103ffc00436f24002e089000be089000aef9070015
:10400c000000e000010035000044eb000804e00073
:10401c000400320000402200416f2400200f980061
:10402c00310f980018c0b30002402200437f2400d7
:10403c002e089000be0890009ff907000000e000d9
:10404c00010034000044eb000804e0000a003200d8
:10405c0002002000032824002e089000be089000c7
:10406c0007fa0700200f9800310f98000000eb00b2
:10407c00000f78002c00370018c0b300024022005b
:10408c00438f24002e089000be0890008af9070088
:10409c000000e000010034000044eb000804e000e4
:1040ac000a00320002002000031824002e089000a1
:1040bc00be089000f2f90700200f9800310f98000d
:1040cc0010002000000f78001700370018c0b30054
:1040dc0002402200439f24002e089000be0890004e
:1040ec0075f907000000e000010034000044eb000b
:1040fc000804e0000a00320002002000030824003b
:10410c002e089000be089000ddf90700200f9800e3
:10411c00310f980020002000000f780002003700bb
:10412c0030002000000f78002e099000be0990008e
:10413c000040220041b724001df9070002002000b6
:10414c0003f02300bdf807005ff907001007980083
:10415c001e009000680010004200dd00100798005f
:10416c006e009000900090000e5890000080fb00b4
:10417c006300600000004000640147000000410043
:10418c00100078001e0170001e00900002007000ec
:10419c000050a000800878006e0090002000900075
:1041ac008000eb00010878006e0090001000780091
:1041bc0001002800010878000b0037000000000007
:1041cc000900370000000000070037000000000065
:1041dc00050037000000000003003700000000005d
:1041ec0001003700000000004f0478000080fa0046
:1041fc00000006000200fa00000f78001e00780094
:10420c00100078008000eb00010878001e00780098
:10421c00100090008000eb00010878001e00780070
:10422c00200090008000eb00010878001e00780050
:10423c00000890000000e00028003200113a8000d5
:10424c00f00b20000081600060042000710520004c
:10425c0023742000804978008149780082497800d5
:10426c001e007800400090009e007800c100900075
:10427c00110178009e007800a14890008180fb001d
:10428c00f30320008118dd008280700001087800a3
:10429c00103a8000000178000260a0006004200049
:1042ac007105200023742000804978008149780032
:1042bc00824978001e007800000890008000eb0016
:1042cc00010898001e007800000890000102070009
:1042dc001e0078008000eb00010898001e0078009a
:1042ec00100890000000e0002f003200113a80000e
:1042fc00f00b20000081600060042000710520009c
:10430c002374200080497800814978008249780024
:10431c001e00780010089000700090009e0078003d
:10432c0091089000f1009000110178009e00780037
:10433c0091089000a14890008180fb00f3032000bd
:10434c008118dd008180ea0081006100010878009d
:10435c00103a8000000178000260a0006004200088
:10436c007105200023742000804978008149780071
:10437c00824978001e007800100890008000eb0045
:10438c00010898001e00780010089000f801070042
:10439c001e00780010089000520207001e007800e2
:1043ac008000eb00110898001e0078002008900097
:1043bc000000e0002f003200113a8000f00b2000ca
:1043cc00008160006004200071052000237420002f
:1043dc008049780081497800824978001e00780075
:1043ec0020089000700090009e007800a1089000ba
:1043fc00f1009000110178009e007800a108900057
:10440c00a14890008180fb00f30320008118dd009f
:10441c008180ea008100610001087800103a800078
:10442c00000178000260a0006004200071052000eb
:10443c0023742000804978008149780082497800f3
:10444c001e007800200890008000eb000108980006
:10445c001e00780020089000c50107001e0078009f
:10446c0020089000340207001e0078008000eb004a
:10447c00210898000080fa00000006000400fa00f1
:10448c00000f7800214798001e0078003000900043
:10449c00ae4090008180fb00010878000000000015
:1044ac001e00780010007800100078006100600099
:1044bc000000e000faff32001e007800300090008f
:1044cc0010007800004078000080fa000000060020
:1044dc000400fa00000f7800110798001e009000ed
:1044ec000000e0000d0032001e0078001000780083
:1044fc009e00780091007800110178009e007800f1
:10450c00e14090008180fb00130020008118dd0049
:10451c0082807000010878000d0037001e007800c2
:10452c00100078009e00780091007800110178004e
:10453c009e007800e14090008180fb001300200079
:10454c008118dd008180ea0081006100010878009b
:10455c000080fa00000006000200fa00000f78004c
:10456c001e00780010007800900078001e00780083
:10457c00604090000080fb00120020000010dd0065
:10458c000080600000f0a7000000ea000000ea00d4
:10459c004f00de000080fa00000006000200fa0066
:1045ac00000f78001e007800400090004019880031
:1045bc002023a800000000000019800061006000aa
:1045cc000000e000fcff3200001880000080fa00c0
:1045dc00000006000200fa00406d2000801f7800e9
:1045ec00470120000043eb008082eb0054c0b30075
:1045fc008001eb00822d2000a12d2000c084200022
:10460c00080107008f87e900806d2000801f78006b
:10461c009701200086c0b3008082eb0044c0b30039
:10462c008001eb00822d2000a12d2000208620008f
:10463c00fc0007008f87e900a06c2000801f780029
:10464c00a70020000043eb008082eb0044c0b300c5
:10465c008001eb00822e2000a12e200080872000fc
:10466c00f00007008f87e900006d2000801f7800a4
:10467c001701200086c0b3008082eb0054c0b30049
:10468c008001eb00822e2000a12e2000e08820006b
:10469c00e40007008f87e900c06d2000801f7800c0
:1046ac00d701200086c0b300f5002000f4c0b30091
:1046bc00234e2000822c2000a12c2000408a2000b8
:1046cc00d80007008f87e900006d2000801f78005c
:1046dc00070120000043eb008082eb0034c0b300e4
:1046ec008001eb00822e2000a12e2000a08b200048
:1046fc00cc0007008f87e900206c2000801f780019
:10470c00270020000043eb008082eb0084c0b30044
:10471c008001eb00822d2000a12d2000008d2000b7
:10472c00c00007008f87e900c06c2000801f780054
:10473c00c70020000043eb008082eb00b4c0b30044
:10474c008001eb00822d2000a12d2000608e200026
:10475c00b40007008f87e900406c2000801f7800b0
:10476c00470020000043eb008082eb0094c0b300b4
:10477c008001eb00822d2000a12d2000c08f200095
:10478c00a80007008f87e900206c2000801f7800ac
:10479c003700200086c0b3008082eb00a4c0b300b9
:1047ac008001eb00822d2000a12d20002091200003
:1047bc009c0007008f87e900a06c2000801f780008
:1047cc00b700200086c0b3008082eb000042eb00f3
:1047dc008001eb00822d2000a12d20008092200072
:1047ec00900007008f87e900806d2000801f780003
:1047fc00870120000043eb008082eb0014c0b30063
:10480c008001eb00822d2000a12d2000e0932000e0
:10481c00840007008f87e900606d2000801f7800fe
:10482c007701200086c0b3008082eb0024c0b30067
:10483c008001eb00822d2000a12d2000409520004e
:10484c00780007008f87e900606d2000801f7800da
:10485c00670120000043eb008082eb0034c0b30002
:10486c008001eb00822d2000a12d2000a0962000bd
:10487c006c0007008f87e900006c2000801f780017
:10488c008003eb000043eb008002eb000042eb00e6
:10489c00234e2000822c2000a12c2000e09e200022
:1048ac00600007008f87e900006c2000801f7800f3
:1048bc001700200086c0b3001500200014c0b30000
:1048cc00234e2000822c2000a12c2000809d200053
:1048dc00540007008f87e900c06c2000801f78000f
:1048ec00d700200086c0b3002500200024c0b300f0
:1048fc00234e2000822c2000a12c2000209c200084
:10490c00480007008f87e9000000eb00801f78004b
:10491c008083eb000043eb003500200034c0b30073
:10492c00234e2000822c2000a12c2000c09a2000b5
:10493c003c0007008f87e900c06d2000801f7800c5
:10494c00c70120000043eb004500200044c0b30029
:10495c00234e2000822c2000a12c200060992000e6
:10496c00300007008f87e900206d2000801f780041
:10497c00270120000043eb005500200054c0b30079
:10498c00234e2000822c2000a12c20000098200017
:10499c00240007008f87e9000000eb00000f78006f
:1049ac00070037001e0078007600b9008000780000
:1049bc00c084200000804000460007001e0fe80065
:1049cc001e007800ed0f5000f6ff36000000eb00e3
:1049dc00000f7800070037001e0078007600b90041
:1049ec0080007800009820000080400095000700af
:1049fc001e0fe8001e007800e50f5000f6ff360091
:104a0c00002e2000001988002223ef0000c4200093
:104a1c00201988002823ef0021e3a8000080fa0069
:104a2c00000006001000fa00000f78001107980033
:104a3c002207980033079800044f980055079800f8
:104a4c00464f9800770798001e0078009e00900053
:104a5c00010878001e007800ae009000110098004c
:104a6c001e007800be009000210098001e00780007
:104a7c008e489000614098001e007800de00900087
:104a8c00410098001e007800ce4890002148980004
:104a9c00fe0090001e007800610098001e00780057
:104aac00ceb89700710098001e0078008000eb00d3
:104abc00010898001e0078008000eb001108980097
:104acc001e0078008000eb00210898000080fa009e
:104adc00000006000200fa00000f78001e007800ab
:104aec00200090000000e0000d0032001e00780055
:104afc00200090009e007800a10090001101780029
:104b0c009e007800e14090008180fb0013002000a3
:104b1c008118dd008180ea008100610001087800c5
:104b2c001e007800100090009e007800910090000c
:104b3c00110178009e007800e14090008180fb001c
:104b4c00130020008118dd008280700001087800bd
:104b5c001e0078008000eb00110898001e00780001
:104b6c00212b2200210898000080fa00000006008a
:104b7c000200fa00000f78001e0078002000900060
:104b8c000000e0000d0032001e00780020009000b4
:104b9c009e007800a1009000110178009e00780022
:104bac00e14090008180fb00130020008118dd00a3
:104bbc008180ea0081006100010878001e00780005
:104bcc00100078009e0078009100780011017800a8
:104bdc009e007800e14090008180fb0013002000d3
:104bec008118dd008180ea008100610001087800f5
:104bfc001e007800100090009e007800910090003c
:104c0c00110178009e007800e14090008180fb004b
:104c1c00130020008118dd008180ea008100610012
:104c2c00010878001e007800e12622001108980087
:104c3c001e007800212b2200210898000080fa0029
:104c4c00000006000200fa00000f78001e00780039
:104c5c00200090000000e0001f0032001e007800d1
:104c6c00100090009e0078009100900011017800d7
:104c7c009e007800e14090008180fb001300200032
:104c8c008118dd0082807000010878001e00780019
:104c9c00200090009e007800a10090001101780087
:104cac009e007800e14090008180fb001300200002
:104cbc008118dd0082807000010878001e007800e9
:104ccc008000eb00110898001e007800412d220096
:104cdc002108980001003700000000000080fa0055
:104cec00000006000200fa00000f78001e00780099
:104cfc0090089000e0262200808f50000c003a00b3
:104d0c001e007800100078009e007800910078005a
:104d1c00110178009e007800e14090008180fb003a
:104d2c00130020008118dd008280700001087800db
:104d3c000080fa00000006000200fa00000f780064
:104d4c001e00780090089000e0262200808f500012
:104d5c000d003a001e007800100078009e007800cc
:104d6c0091007800110178009e007800e1409000dd
:104d7c008180fb00130020008118dd008180ea0097
:104d8c0081006100010878000080fa000000060034
:104d9c000200fa00000f78001e00780090089000c6
:104dac00e0262200808f50000c003a001e00780094
:104dbc00100078009e0078009100780011017800b6
:104dcc009e007800e14090008180fb0013002000e1
:104ddc008118dd0081006900010878000080fa006c
:104dec00000006000400fa00000f7800110798007c
:104dfc001e007800100890000000e0000500320052
:104e0c001e007800100990009e0090001e00780093
:104e1c00020001000080fa00000006000200fa0007
:104e2c00000f78001e007800200890000000e000c1
:104e3c00050032001e007800a00890001e007800cb
:104e4c0001000100010037000080eb000080fa0037
:104e5c00000006000200fa00004f7800114798008d
:104e6c00e0c7b3009e40780080cf50000a003e009f
:104e7c0040428000b0ff07009e40780000a920004f
:104e8c007efd07009e40900000a920007bfd0700de
:104e9c004042800093ff07000080fa0000000600eb
:104eac000400fa0020479800ae409000e0c7b30021
:104ebc0080cf500010003e00404280009eff070053
:104ecc00ae40900000c8b30000c070008040780075
:104edc0000a9200069fd07008040eb0000a920001c
:104eec0066fd0700004f7800404280007dff070000
:104efc001e4078000100370000c0eb000080fa0073
:104f0c00000006000800fa002047980021079800ce
:104f1c00624798002e4090008080fb006e4090000d
:104f2c000080fb0080804000e0072000808f500054
:104f3c0016003c00404280007fff0700ae4090000e
:104f4c0000a920004dfd07000040eb00004f780049
:104f5c00080037001e80fb00ae009000008040006f
:104f6c00104078008040780000a9200043fd070025
:104f7c001e4fe8006e4090009e40780080cf50009d
:104f8c00f4ff39004042800056ff07000080fa0011
:104f9c00000006000800fa00881f780020479800df
:104fac0021079800624798002e4090008080fb00fb
:104fbc006e4090000080fb0080804000e0072000e5
:104fcc00808f50001a003c00404280005aff0700be
:104fdc00ae40900000c8b30000c070008040780064
:104fec0000a9200025fd07000040eb00004f7800d1
:104ffc00080037001e80fb00ae00900000844000cb
:10500c008040eb0000a920001cfd0700004c78003c
:10501c001e4fe8006e4090009e40780080cf5000fc
:10502c00f4ff3900404280002eff07000d003700ce
:10503c000040eb00004f7800060037001e80fb009c
:10504c00ae0090000080400080c0eb00014878006a
:10505c001e4fe8006e4090009e40780080cf5000bc
:10506c00f6ff39004f0478000080fa0000000600bb
:10507c000400fa00881f7800408320001040900044
:10508c000080fb006101b9000080eb008080eb0028
:10509c0002004000838048009200200003002000a2
:1050ac00820f5000838f580082003e000060010088
:1050bc0009003700110037001900370024003700b1
:1050cc002f0037003a0037004b00370058003700ec
:1050dc00600037006b003700008020003d010700a6
:1050ec0040c020008040eb000148780050c02000f8
:1050fc0081ccb3000148780071003700808020001b
:10510c003401070040c020008040eb0001487800cb
:10511c0050c0200081ccb3000148780068003700f3
:10512c0038608000808120009a01070000407800e0
:10513c00004c780040c0200011c0b300014878003a
:10514c0050c0200081ccb300014878005c003700cf
:10515c0040832000c04090004083200020409000fd
:10516c003cff070040c020008040eb000148780065
:10517c0050c0200081ccb3000148780050003700ab
:10518c0038608000408320002040900044ff0700de
:10519c00004c780040c0200011c0b30001487800da
:1051ac0050c0200081ccb300014878004400370087
:1051bc00408320009040780040a8200001487800ef
:1051cc00408320009040900050a8200001487800b7
:1051dc004083200010009000305488004083200051
:1051ec002000900040548800408320003000900044
:1051fc0050548800320037004083200060419000fa
:10520c0031608000408320002040900061ff070047
:10521c0040832000e040900040c02000014878000e
:10522c0050c0200081ccb300014878002400370026
:10523c0000812000e700070040c020008040eb0008
:10524c000148780050c0200081ccb30001487800a0
:10525c001b00370038608000008220004d010700e1
:10526c0000407800004c780040c0200011c0b30012
:10527c000148780050c0200081ccb3000148780070
:10528c000f00370038608000808220004101070049
:10529c0000407800004c780040c0200011c0b300e2
:1052ac000148780050c0200081ccb3000148780040
:1052bc00030037003cc8bf000004a0003ce8b70066
:1052cc004f0478000080fa00000006000000fa008d
:1052dc003cc8bf000004a0003ce8b7000080fa0006
:1052ec00000006000400fa0050a8200010407800ce
:1052fc000080fb00e60f500007003a00a0a8200039
:10530c00104178001160800060a8200010407800e7
:10531c00fcfe0700030037003cc8bf000004a000df
:10532c003ce8b7000080fa00000006000000fa001c
:10533c0000102000203a880023000700a5fc07007d
:10534c0000fa0700e093200010428800a09620008d
:10535c002042880040952000304288002091200097
:10536c0050428800809220004042880040428000d9
:10537c00fffd0700404280005afe070012428000e9
:10538c0031428000204280000043eb0004402200a8
:10539c004597240082017800010178008000780094
:1053ac0000a920003afa0700b5f507000100370004
:1053bc00f2f5070040c8bf00e34f5000fcff3a0075
:1053cc00eef50700feff37000000fa0074c0b300d2
:1053dc00634e2000822d2000a12d20000080200093
:1053ec00200007000042eb00a34e2000822e20007c
:1053fc00a12e2000808020001a00070014c0b300ea
:10540c00a34e2000822e2000a12e2000008120001f
:10541c0014000700f4c0b300434e2000022d2000fe
:10542c00212d200080812000ad000700c4c0b300f6
:10543c00434e2000022d2000212d20000082200050
:10544c00a7000700c4c0b300234e2000822c20000c
:10545c00a12c200080822000a10007000080fa000f
:10546c00000006000a00fa00000f780011079800ef
:10547c002207980033079800044f98001e0078000c
:10548c009e009000010878001e007800ae0090008d
:10549c00110098001e007800be00900021009800ba
:1054ac001e0078008e489000614098001e00780025
:1054bc00200090009e007800a1009000110178005f
:1054cc009e007800e14090008180fb0013002000da
:1054dc008118dd008180ea008100610001087800fc
:1054ec001e007800100078009e0078009100780073
:1054fc00110178009e007800e14090008180fb0053
:10550c00130020008118dd008180ea008100610019
:10551c00010878001e007800100090009e007800b2
:10552c0091009000110178009e007800e1409000fd
:10553c008180fb00130020008118dd008180ea00cf
:10554c0081006100010878000080fa00000006006c
:10555c000200fa00000f78001e007800100078009e
:10556c009e00780091007800110178009e00780070
:10557c00e14090008180fb00130020008118dd00c9
:10558c0082807000010878000080fa00000006009c
:10559c000200fa00000f78001e007800100078005e
:1055ac009e00780091007800110178009e00780030
:1055bc00e14090008180fb00130020008118dd0089
:1055cc008180ea0081006100010878000080fa0007
:1055dc00000006000200fa00000f78001e007800a0
:1055ec00100078009e00780091007800110178007e
:1055fc009e007800e14090008180fb0013002000a9
:10560c008118dd0081006900010878000080fa0033
:10561c00000006000400fa00000f78001107980043
:10562c001e0090000000e0000d0032001e0078000b
:10563c00100078009e00780091007800110178002d
:10564c009e007800e14090008180fb001300200058
:10565c008118dd0082807000010878000d00370091
:10566c001e007800100078009e00780091007800f1
:10567c00110178009e007800e14090008180fb00d1
:10568c00130020008118dd008180ea008100610098
:10569c00010878000080fa00000006000200fa0001
:1056ac00000f78001e007800100078009000780041
:1056bc001e007800604090000080fb00120020006b
:1056cc000010dd000080600000f0a7000000ea0080
:1056dc000000ea004f00de000080fa000000060027
:1056ec000a00fa00000f78001107980022079800b2
:1056fc0033079800044f98001e0078009e0090001d
:10570c00010878001e007800ae009000110098008f
:10571c001e007800be009000210098001e0078004a
:10572c008e489000614098001e0078002000900088
:10573c009e007800a1009000110178009e00780076
:10574c00e14090008180fb00130020008118dd00f7
:10575c008180ea0081006100010878001e00780059
:10576c00100090009e0078009100900011017800cc
:10577c009e007800e14090008180fb001300200027
:10578c008118dd0082807000010878000080fa002a
:10579c00000006000200fa00000f78001e007800de
:1057ac0010007800900078001e0078006040900097
:1057bc000080fb00120020000010dd000080600063
:1057cc0000f0a7000000ea000000ea004f00de0035
:0857dc000080fa000000060045
:020000040000fa
:1057e400420800000a00000080000000040a0000d3
:1057f4008c00000080000000000c0000800000000d
:10580400800000003008000012000000800000004a
:105814000008000030000000800000004c08000078
:10582400b801000080000000900a0000420000005f
:085834008000000000000000ec
:020000040000fa
:08583c000040da000000fe004c
:00000001FF
